:030000000205678F
:0C056700787FE4F6D8FD75814E0205AEE9
:0E0BE60081838587898B8D80828486888A8CA6
:090862000717140A2227020722DD
:100B6700E4FEEF1392A1C2A20000D2A20000EFC3DD
:060B770013FF0EBE08ECA6
:010B7D002255
:100ABB00E4FED2A20000C2A20000EFC313FF30A1DC
:0D0ACB0005430780800353077F0EBE08E53A
:010AD80022FB
:0E097D00E493FFAD0312098BA3E493FFAD02D8
:10098B00C2A000C2A200D2A000120B67AF05120BCF
:08099B0067D2A200C2A00022F5
:040AD900A3E493FF00
:100ADD00C2A000C2A200D2A000EF4401FF120B671A
:090AED00120ABBD2A200C2A00053
:010AF60022DD
:100A7B00AC07AA05E4FD7F8E12098B900BED1209D2
:100A8B007DA3E493FFAD0412098B7D107F8E0209C9
:010A9B008BCF
:100A1300AC07AA05E4FD7F8E12098B900BF0120937
:100A23007D900BF3E493FFAD0412098B7D107F8E51
:030A330002098B2A
:100B7E00900BE6E493FF120ADD8F17120AD98F1835
:060B8E00120AD98F1922A2
:100B3300900BE9E493FF120ADD8F1A120AD98F1B77
:0C0B4300900BECE493FF120ADD8F1D22E2
:050C740075BC8F002299
:100734008B0F8A108911E5BC30E4FB53BCEFAFBDCD
:10074400AB0FAA10A911E48FF0120146AB0FAA1047
:10075400A9111200E3AEF07802C333CE33CED8F938
:10076400FFEE8FF0120146AB0FAA10A9111200E39D
:10077400FFADBEEF4DFFE5F08FF0120146AFBD2295
:100BA600759D80E4F5BD43918053927F0075BC8F9F
:010BB600221C
:070C510075930F7594F0226A
:100BB700EF70047F0180027F00EF24FFB39284224D
:10067200E580540F640F605DE4FD74017E00A805FF
:10068200088005C333CE33CED8F94E70047F018083
:10069200027F00E5805F6034054AE54A7002054941
:1006A200D394B8E549940B400F754702ED04F54623
:1006B20075490B754AB88019D3E54A9403E5499404
:1006C20000400E754701ED04F5468005E4F549F555
:0506D2004A0DBD04A566
:0106D7002200
:100B9400E547600DE546B40105B284E4F546E4F5A5
:020BA4004722E6
:0D0C0200323032322D30332D32300A0D00E9
:09086B00014E00014C00014D009A
:100AF700EF1FAA0670011E4A6013E4FCFDC3ED94C4
:0D0B070026EC940250EA0DBD00010C80F0B8
:010B140022BE
:100B1500EF1FAA0670011E4A6013E4FCFDC3ED94A5
:0D0B250032EC940050EA0DBD00010C80F090
:010B320022A0
:070C58005395F843960722B3
:070C5F005391F843920722B4
:070C660053919F43926022AD
:1003A300E4F508F509C3E51F94E8E51E9403502C12
:1003B300E54E7007754E01F54D8067AE1EAF1F7C8D
:1003C300017D9012008EED641F4C7056E54DB40311
:1003D300097B007A00790C1207348041C3E51F942E
:1003E300D0E51E9407503BE54E6007E4F54EF54D0E
:1003F3008030AE1EAF1F7C017D9012008EED641F16
:100403004C701FE54DB403157B007A00790A12077F
:10041300348F0E7FFE120C48AF0E120C48054D129E
:100423000C74AE1EAF1F7C017DF412008EED645977
:100433004C7005AF0E120297AE1EAF1F7C017DF408
:1004430012008EED4C7054C3E50D94E8E50C940353
:100453005041AF0DAE0C120BC78F09E54B700885E9
:10046300094B8509088022E50965086016E509B589
:100473004B11054CE54CD3940A400EE4F54C854BE7
:10048300088006E4F54C85094BE508B4780885092E
:0B049300088003750878AF081207CE40
:01049E00223B
:10078400120C58120C5F120C66120BA6120B4F12AD
:10079400000E120BD77BFF7A0C79021209C9120BD7
:1007A4007E120818AE1EAF1F7C017DF412008EED80
:1007B4004C700FAD18AF191208A8E5175401FF12B9
:0A07C4000C361203A3120B9480D42C
:10049F00033E03370330032803210318030F030818
:1004AF00030102FA02F302EC02E502DE02D702D0E8
:1004BF0002C802C002B802B002A902A2029B0293B4
:1004CF00028A02800277026F0267026002590251AC
:1004DF00024A0242023A0232022B0224021C021585
:1004EF00020F0209020301FE01F901F401EF01EA13
:1004FF0001E501E001DB01D601D101CC01C701C249
:10050F0001BD01B801B301AE01A901A401A0019C75
:10051F00019801940190018C018801840180017C74
:10052F00017801740170016D016B01680165016251
:10053F000161015E015B015801550152014F014CF0
:10054F000149014601430140013E013C0139013798
:08055F00013501330131012FC8
:060165008B0F8A108911C6
:10016B00E4FCF515ED14F5161200E3FFD3E5149F2F
:10017B00E51395F040037FFF22ED24FFFFE434FFEE
:10018B00FEEF25E0FFEE33AB0FAA10A9118F82F51E
:10019B008312010EFFC3E5149FE51395F050037F07
:1001AB00FE22E515D39516505FE5162515FFE433B2
:1001BB00C313EF13FCAB0FAA10A91175F002A4F532
:1001CB008285F08312010EFFAEF0B51408E513B56E
:1001DB000603AF0422D3E5149FE5139E4006EC14EF
:1001EB00F51680BEAB0FAA10A91175F002ECA4F5A1
:1001FB008285F08312010EFFC3E5149FE51395F082
:10020B0050A0EC04F515809AAB0FAA10A91175F04C
:10021B0002ECA4F58285F08312010EFFAEF0D3E55C
:10022B00149FE5139E4027AD14ED9FF516EC24FFAC
:10023B00FFE434FFFEEF25E0FFEE338F82F58312F0
:10024B00010EC39DF515C39516503E1C803BAB0F9D
:10025B00AA10A91175F002ECA4F58285F0831201A6
:10026B000EAD14C39DF515EC2401FFE433FEEF2511
:10027B00E0FFEE338F82F58312010EFFC3ED9FF586
:0B028B0016E515D3951640010CAF04DA
:010296002245
:100BC7007BFF7A04799F8E138F147D64120165224F
:04087400021E000060
:050C7900C295D2962295
:050C7E00D295C2962290
:050C8300C295C296229B
:03000B000205F3F8
:1005F300C0E0C0F0C083C082C0D075D000C000C0CE
:1006030001C002C003C004C005C006C007758A74D8
:10061300758CEC051FE51F7002051ED394D0E51EF3
:1006230094074006751E00751F00E54E700FE51F09
:1006330030E005120C7E8008120C838003120C79C3
:10064300AE1EAF1F7C007D1612008EED640B4C7046
:1006530003120672D007D006D005D004D003D0020F
:0F066300D001D000D0D0D082D083D0F0D0E03200
:100B4F00438E80758901758A74758CECD28CD2A90D
:080B5F00D2AFE4F51EF51F22E0
:100878000C227E306D79335B5F707F7B0001102E18
:100888000000000000000000000000000000000060
:06089800013E8901210070
:100A3600E4FEC291EF30E004D2908002C290000042
:100A460000D291EFC313FF0000000EBE08E4C2916E
:020A5600C2904C
:010A5800227B
:0E0BF400D29200C292120A36000000D2922263
:0C0C0F00D29200C292120A3600000022AD
:0609A3008B108A1189127D
:1009A900E4FCECC39D5018AB100512E512AA1170B6
:0F09B90002051114F9120048FF120A360C80E3F0
:0109C800220C
:100A9C00E4F508752F04E5244402F53085243285ED
:0E0AAC002534E5264480F53685273885283A1E
:010ABA002219
:1008E8008D0FAC07ECD3940D5034EC250FFFE43397
:1008F800FED3EF940EEE6480948050227F03120B97
:10090800F47F40120BF4EC24C0FF120C0F742E2C51
:0F091800F9E4FAFBAD0F1209A3AF3E120BF42264
:10095500AD07EDD3940D501F7F03120BF47F4412A6
:100965000BF4ED24C0FF120C0F742E2DF8E6FF12C8
:080975000A36AF3E120BF4221A
:1008A800EFC4540F60082422F8E6F5308003E4F51D
:1008B80030EF540F2422F8E6F532E5345480FEED8B
:1008C800C4540F2422F8E64EF534E5365480FEED84
:1008D800540F2422F8E64EF5367D087F020208E818
:1007CE00D3EF648094EE4008852D38852D3A803322
:1007DE00BFFF02802EBFFE028029E5385480FEEF57
:1007EE0075F00A1200262422F8E64EF538E53A5442
:1007FE0080FEEF75F00A120026AFF074222FF8E695
:0A080E004EF53A7D047F0A0208E867
:0C0927007D037F011209330B7D047F016A
:10093300EB600E742E2FF8E6FE5D6D6014EE4D80B5
:100943000C742E2FF8E6FE5D6007EDF45EF61209D7
:0209530055222B
:090C1B00AB077D807F060209335E
:090C2400AB077D047F0D020933CA
:090C2D00AB077D027F0D020933C3
:090C3600AB077D027F02020933C5
:090C3F00AB077D027F0B020933B3
:100297008F0FE521700302036014700302034114FA
:1002A700606D14604224FE7003020385046003023C
:1002B70003A27B017D80E4FF1209337D077F0112D2
:1002C7000933E50FC394605005752103800AE50FD4
:1002D700D394A04003752105E50FD3946E50030214
:1002E70003A2E4FF020BB77B017D077F01120933ED
:1002F700E41B7D80FF120933E50FD394704004752A
:10030700210422E50FC3944040030203A2803DE489
:10031700FB7D80FF1209337D017F011209330B7DBD
:10032700067F01120933E50FD3945040047521036A
:1003370022E50FC3942050638035E4FB7D80FF12D4
:100347000933120927E50FD394304004752102229F
:10035700E50FC394105044803FE4FB7D80FF1209F2
:10036700337D077F01120933E50FD39415400475D8
:10037700210122E50FC394025021752105227B013B
:100387007D80E4FF1209331B120927E50FD394057B
:0C0397004009E50F94A05003E4F521227A
:0F0BD700120A9C7D0EE4FF1208E87F01020C3F1A
:070C6D006F6B00657272005D
:09089E00014500013F0001440086
:080003008F993099FDC299228A
:1009C9008B088A09890AAB08AA09A90A1200486092
:1009D90013050AE50A7002050914F9120048FF1205
:0509E900000380E22282
:10000E0053877F759850538EFB759CFD438E11D28E
:04001E00AFD2AC228F
:060A59008B088A09890ADE
:100A5F00E4FFFEEEC39D5013AB08AA09A90A8E82CC
:0B0A6F007583001200612FFF0E80E86D
:010A7A002259
:030023000206D8FA
:0D06D800C0E0C0D075D000C000C006C00753
:1006E50030983AC298AF99E53F14601A1460172400
:1006F50002702ABFAA05753F018006BFCC03753F6E
:10070500027545008017AE45054574402EF8A607CD
:10071500E545D394034006754500754401309904B9
:04072500C299C200B3
:0B072900D007D006D000D0D0D0E032C6
:090C48002000FDEFD200F5992215
:1009EE008B088A09890AAB08AA09A90A120048606D
:1009FE0013050AE50A7002050914F9120048FF12E0
:050A0E000C4880E2220B
:10081800E54464017043FB7A0079407D03120A596C
:10082800EF65437026E53FB4010BAB42AD41AF40E5
:10083800120A7B800EE53FB40209AB42AD41AF40DE
:10084800120A137BFF7A0C796D80067BFF7A0C798C
:0A085800701209EEE4F53FF54422AA
:10057300020784E493A3F8E493A34003F68001F213
:1005830008DFF48029E493A3F85407240CC8C33389
:10059300C4540F4420C8834004F456800146F6DF58
:1005A300E4800B0102040810204080900862E47E7E
:1005B300019360BCA3FF543F30E509541FFEE4934D
:1005C300A360010ECF54C025E060A840B8E493A314
:1005D300FAE493A3F8E493A3C8C582C8CAC583CA3F
:1005E300F0A3C8C582C8CAC583CADFE9DEE780BEF7
:0108A7000050
:10002600C2D530F707B2D563F0FF05F030E70CB262
:10003600D5F4048463F0FF05F080018430D502F422
:02004600042292
:10004800BB010689828A83E0225002E722BBFE02B6
:09005800E32289828A83E49322E9
:10006100BB010CE58229F582E5833AF583E0225054
:1000710006E92582F8E622BBFE06E92582F8E2229E
:0D008100E58229F582E5833AF583E49322B8
:10008E00BC000BBE0029EF8DF084FFADF022E4CC56
:10009E00F875F008EF2FFFEE33FEEC33FCEE9DEC1F
:1000AE00984005FCEE9DFE0FD5F0E9E4CEFD22ED65
:1000BE00F8F5F0EE8420D21CFEADF075F008EF2FAF
:1000CE00FFED33FD4007985006D5F0F222C398FDA0
:0500DE000FD5F0EA223D
:1000E300BB010A89828A83E0F5F0A3E022500687E8
:1000F300F009E71922BBFE07E3F5F009E3192289AA
:0B010300828A83E493F5F074019322DC
:10010E00BB0110E58229F582E5833AF583E0F5F02F
:10011E00A3E0225009E92582F886F008E622BBFE0C
:10012E000AE92582F8E2F5F008E222E5832AF58352
:08013E00E993F5F0A3E9932217
:10014600BB010A89828A83F0E5F0A3F0225006F704
:0F01560009A7F01922BBFE06F3E5F009F3192201
:00000001FF
