:03000000020A569B
:0C0A5600787FE4F6D8FD758121020A9D2E
:0512250075BC8F0022E2
:100CE700783EEBF208EAF208E9F2E5BC30E4FB53A0
:100CF700BCEFAFBD783EE2FB08E2FA08E2F9E48F09
:100D0700F012063D783EE2FB08E2FA08E2F9120526
:100D1700DAAEF07802C333CE33CED8F9FFEE8FF0D8
:100D270012063D783EE2FB08E2FA08E2F91205DA1C
:100D3700FFADBEEF4DFFE5F08FF012063DAFBD22D0
:10114D00759D80E4F5BD43918053927F0075BC8FF2
:01115D00226F
:0D118B0075930F7594F05391EF439210226D
:10115E00EF70047F0180027F00EF24FFB392942290
:100C7200E580540F640F606CE4FD74017E00A805EA
:100C8200088005C333CE33CED8F94E70047F01807D
:100C9200027F00E5805F60407804E22401F218E2FE
:100CA2003400F2E2FE08E2FFD394B8EE940B401453
:100CB20078017402F2ED0418F27803740BF20874EE
:100CC200B8F2801AD3EF9403EE94004011780174C5
:100CD20001F2ED0418F28006E47803F208F20DED59
:040CE20064047096A0
:010CE60022EB
:101127007801E2600D18E2B40104B294E4F2E478C5
:0311370001F222A0
:10110F00646174653A20323032332D30322D3138EC
:08111F000D0A0025640D0A0011
:090E34008108008106008107001D
:10106800EF1FAA0670011E4A6013E4FCFDC3ED944D
:0D10780026EC940250EA0DBD00010C80F042
:011085002248
:10108600EF1FAA0670011E4A6013E4FCFDC3ED942F
:0D10960032EC940050EA0DBD00010C80F01A
:0110A300222A
:0711EE005395F84396072218
:0711F5005391F84392072219
:0711FC0053919F4392602212
:1007D900E47837F208F27809E2FE08E2FFC394E808
:1007E900EE9403502A7808E2700704F2E418F280C4
:1007F9006C7C017D90120585ED641F4C705F780754
:10080900E2B403097BFE7A00793B120CE780467853
:1008190009E2FE08E2FFC394D0EE9407503F78083E
:10082900E26006E4F218F280347C017D90120585BD
:10083900ED641F4C70277807E2B403197BFE7A0038
:100849007939120CE7783DEFF27FFE1211DD783D20
:10085900E2FF1211DD7807E204F21212257809E2AB
:10086900FE08E2FF7C017DF4120585ED64594C70A8
:1008790007783DE2FF1206AD7809E2FE08E2FF7C47
:10088900017DF4120585ED4C706A783BE2FE08E2C1
:10089900FFC394E8EE9403504F12113A7838EFF2FF
:1008A9007805E2FF700D7838E2FE7805F27837EEC8
:1008B900F280297837E2FE08E2FD6E6018EDB5078F
:1008C900147806E204F2E2D3940A4010E4F218E242
:1008D9007837F28007E47806F218EDF27837E2B457
:1008E900780B08E218F2800578377478F27837E2E5
:0408F900FF120D4796
:0108FD0022D8
:100BF3001211EE1211F512118B1211FCE4FF1211F6
:100C03005E12114D1210DD12000E12116E7BFF7A6F
:100C130011790F120EFD7BFF7A117922783A74074E
:100C2300F20874E7F21200887809E2FE08E2FF7C1A
:100C3300037DE8120585BC0106BD4A031210C112EB
:100C430009C67809E2FE08E2FF7C017DF4120585FE
:100C5300ED4C70137832E2FF18E2FD120E7A783011
:0F0C6300E25401FF1211CB1207D912112780B9E9
:1008FE00033E03370330032803210318030F0308B5
:10090E00030102FA02F302EC02E502DE02D702D084
:10091E0002C802C002B802B002A902A2029B029350
:10092E00028A02800277026F026702600259025148
:10093E00024A0242023A0232022B0224021C021521
:10094E00020F0209020301FE01F901F401EF01EAAF
:10095E0001E501E001DB01D601D101CC01C701C2E5
:10096E0001BD01B801B301AE01A901A401A0019C12
:10097E00019801940190018C018801840180017C11
:10098E00017801740170016D016B016801650162EE
:10099E000161015E015B015801550152014F014C8D
:1009AE000149014601430140013E013C0139013735
:0809BE00013501330131012F65
:0D038100783EEBF208EAF208E9F208EDF22E
:10038E00E47844F208F2ED1408F21205DAFF78422E
:10039E00E2FC08E2FDD39FEC95F040037FFF22784C
:1003AE0041E224FFFFE434FFFEEF25E0FFEE33FED3
:1003BE00783EE2FB08E2FA08E2F98F828E8312069B
:1003CE0005FFC3ED9FEC95F050037FFE227846E2C9
:1003DE00FF18E2FED39F5075EEFDEF2DFFE433C301
:1003EE0013EF1318F2783EE2FB08E2FA08E2F9780E
:1003FE0044E275F002A4F58285F083120605FBAA8D
:10040E00F07842E2FC08E2FDB50308ECB502040800
:10041E00E2FF22D3ED9BEC9A40097844E214784631
:10042E00F280AA783EE2FB08E2FA08E2F97844E2AA
:10043E0075F002A4F58285F083120605FFC3ED9FC9
:10044E00EC95F050887844E20408F28080783EE221
:10045E00FB08E2FA08E2F97844E275F002A4F582AC
:10046E0085F083120605FFD37843E29F18E295F0DC
:10047E00404B783EE2FB08E2FA08E2F97844E27576
:10048E00F002A4F58285F083120605FF784208E299
:10049E00FDC39F7846F2FC7844E224FFFFE434FF6C
:1004AE00FEEF25E0FFEE338F82F583120605C39D26
:1004BE007845F2C39C505318E214F2804D783EE218
:1004CE00FB08E2FA08E2F97844E275F002A4F5823C
:1004DE0085F083120605FF784208E2FDC3EF9D7892
:1004EE0045F2FC18E22401FFE433FEEF25E0FFEEB7
:1004FE00338F82F583120605FFC3ED9FFF7846F218
:0E050E00ECD39F40057844E204F27844E2FF0B
:01051C0022BC
:10113A007BFF7A0879FE7842EEF208EFF27D6412BC
:03114A00038122FC
:040E3D008209000026
:05122A00C295D29622DE
:05122F00D295C29622D9
:05123400C295C29622E4
:03000B00020B6C79
:100B6C00C0E0C0F0C083C082C0D075D000C000C04F
:100B7C0001C002C003C004C005C006C007758A745A
:100B8C00758CEC780AE22401F218E23400F2D308F6
:100B9C00E294D018E294074004E4F208F27808E2F8
:100BAC007010780AE230E00512122F80081212340D
:100BBC00800312122A7809E2FE08E2FF7C007D16FF
:100BCC00120585ED640B4C7003120C72D007D00625
:100BDC00D005D004D003D002D001D000D0D0D08228
:070BEC00D083D0F0D0E0320D
:1010DD00438E80758901758A74758CECD28CD2A97A
:0910ED00D2AFE47809F208F22206
:100E41008C0C7E306D79335B5F707F7B0001901875
:100E51000000000000000000000000000000000091
:060E6100812889810B00CD
:10104400E4FEC291EF30E004D2908002C29000002E
:1010540000D291EFC313FF0000000EEEB408E3C208
:0310640091C290A6
:011067002266
:0E117D00D29200C292121044000000D29222C0
:0C119800D29200C292121044000000220B
:0A0F9600783FEBF208EAF208E9F2F6
:100FA000E4FCECC39D501B783FE2FB0808E2F92407
:100FB00001F218E2FA3400F212053FFF1210440C5D
:020FC00080E0CF
:010FC200220C
:100F6500E47837F278197404F2780EE2FF440278D7
:100F75001AF2781CEFF2780FE2781EF27810E2444C
:100F8500807820F27811E27822F27812E27824F261
:010F95002239
:100DED00783EEDF2AC07ECD3940D503AE2FFEC2FC8
:100DFD00FFE433FED3EF940EEE6480948050277F92
:100E0D000312117D7F4012117DEC24C0FF12119849
:100E1D0074182CF9E4FA7BFE783EE2FD120F9678F9
:070E2D0028E2FF12117D22F3
:100FF000AD07EDD3940D50217F0312117D7F441274
:10100000117DED24C0FF12119874182DF8E2FF1223
:0A10100010447828E2FF12117D223F
:100E7A00EFC4540F6006240CF8E28001E4781AF2F9
:100E8A00EF540F240CF8E2781CF2781EE25480FE2C
:100E9A00EDC4540F240CF8E24E781EF27820E25486
:100EAA0080FEED540F240CF8E24E7820F27D087F84
:040EBA0002020DED36
:100D4700D3EF648094EE400D7817E2FF7822F278B3
:100D570024EFF28039EFB4FF028033EFB4FE028054
:100D67002D7822E25480FEEF75F00A12051D240C3F
:100D7700F8E24E7822F27824E25480FEEF75F00A0A
:100D870012051DAFF0740C2FF8E24E7824F27D04A3
:050D97007F0A020DEDD2
:050EBE00E4FB7D80FF54
:100EC300783FEDF2EB601774182FF8E2FE783FE2FB
:100ED300FDEE5D6D602374182FF8EE4D80177418C6
:100EE3002FF8E2FE783FE2FDEE5D600D74182FF8F7
:0A0EF300EDF4FDEE5DF2120FF022A7
:0911B000AB077D807F06020EC32F
:0911B900AB077D047F0D020EC39B
:0911C200AB077D027F0D020EC394
:0911CB00AB077D027F02020EC396
:0911D400AB077D027F0B020EC384
:1006AD00783EEFF2780BE2700302078814700302B4
:1006BD00075F14607414604624FE70030207AD04D6
:1006CD0060030207D87B017D80E4FF120EC37D0716
:1006DD007F01120EC3783EE2FFC394605007780B82
:1006ED007403F2800BEFD394A04005780B7405F2E0
:1006FD00EFD3946E50030207D8E4FF02115E7B0125
:10070D007D077F01120EC3E41B7D80FF120EC3789F
:10071D003EE2FFD394704006780B7404F222EFC3CF
:10072D00944040030207D88044120EBE7D017F0124
:10073D00120EC30B7D067F01120EC3783EE2FFD36E
:10074D0094504006780B7403F222EFC39420507B33
:10075D00803C120EBE7D037F01120EC30B7D047F04
:10076D0001120EC3783EE2FFD394304006780B742D
:10077D0002F222EFC394105052804C120EBE7D0730
:10078D007F01120EC3783EE2FFD394154006780B1D
:10079D007401F222EFC394025031780B7405F222EA
:1007AD007B017D80E4FF120EC31B7D037F01120EC2
:1007BD00C30B7D047F01120EC3783EE2FFD3940577
:0C07CD004009EF94A05004E4780BF222E5
:0F116E00120F657D0EE4FF120DED7F010211D40B
:100D9C007365742074696D65206F7220646174656D
:100DAC00206F6B0D0A00636B206572720D0A007365
:100DBC0068616E67736875695F64697361626C659D
:100DCC000D0A007368616E67736875695F656E61A3
:100DDC00626C650D0A00666C6167206572720D0AA3
:010DEC000006
:090E6700812F00812900812E0079
:080003008F993099FDC299228A
:100EFD007837EBF208EAF208E9F27837E2FB08E21C
:100F0D00FA08E2F912053F601A7837E2FB0808E2A9
:100F1D00F92401F218E2FA3400F212053FFF120033
:040F2D000380D72244
:10000E0053877F759850538EFB759CFD438E11D28E
:04001E00AFD2AC228F
:0A101A007837EBF208EAF208E9F279
:10102400E4FFFEEEC39D50177837E2FB08E2FA08AE
:0F103400E2F98E827583001205582FFF0E80E4BB
:01104300228A
:03002300020AE2EC
:0D0AE200C0E0C0D075D000C000C006C00745
:100AEF00309868C298AF997829E214602F14602C5F
:100AFF0014603F24037054EFB4AA0778297401F2ED
:100B0F008014EFB4CC0778297402F28009EFB4BBDC
:100B1F000578297403F2782FE4F2802F782FE2FE04
:100B2F0004F2742A2EF8EFF2782FE2D39403401BCD
:100B3F008014782FE2FE04F2742A2EF8EFF2782F49
:100B4F00E2D394014005E4F21804F2309904C299FB
:020B5F00C209C9
:0B0B6100D007D006D000D0D0D0E0328A
:0911DD002009FDEFD209F5992269
:100F31007837EBF208EAF208E9F27837E2FB08E2E7
:100F4100FA08E2F912053F601A7837E2FB0808E275
:100F5100F92401F218E2FA3400F212053FFF1211EE
:040F6100DD80D72236
:06121F00AE071211DD22F2
:1009C600782EE264016003020A557829E2FF640189
:1009D6006005EF640270337BFE7A00792A7D03128C
:1009E600101A782DE26F701A7829E2B4010C08E229
:1009F600FF08E2FD08E2FB120FC37BFF7A0D799C2C
:100A060080437BFF7A0D79B2803B7829E2640370DC
:100A16002E782BE2FF18E2FE6F701CEE700CFF12B0
:100A2600115E7BFF7A0D79BB801B7F0112115E7B05
:100A3600FF7A0D79CF800E7BFF7A0D79B280067B27
:100A4600FF7A0D79E2120F31E47829F2782EF2223C
:090E70008730003B170F0904163E
:071203004395025396FD2202
:07120A004396025395FD22FB
:0610A400C2A0C2A2D2A00E
:1010AA0012120AE4FEC2A2EF1392A1D2A2EFC31354
:0610BA00FF0EEEB408EF8A
:0110C000220D
:1010F600121203E4FEC2A2EFC313FF30A103448021
:08110600FFD2A20EEEB408EDC9
:01110E0022BE
:0811E6001210A4AF050210AACB
:061211001210A41210F6F9
:0112170022B4
:07121800E4FD7F8E0211E6E8
:0C11A4007D807F8E1211E6C2A0C2A22244
:040FC300A907AC05C9
:100FC7007A801212187F80AE03AD061211E60A0A64
:100FD7007F82AE04AD061211E60A0A7F84AE01AD28
:090FE700061211E60A0A0211A427
:1010C1007C81121218E4FDAF0412121174302DF854
:0C10D100EFF20C0C0DEDB403EE0211A4C4
:100A6200020BF3E493A3F8E493A34003F68001F2AC
:100A720008DFF48029E493A3F85407240CC8C33395
:100A8200C4540F4420C8834004F456800146F6DF64
:100A9200E4800B0102040810204080900E34E47EB2
:100AA200019360BCA3FF543F30E509541FFEE49359
:100AB200A360010ECF54C025E060A840B8E493A320
:100AC200FAE493A3F8E493A3C8C582C8CAC583CA4B
:100AD200F0A3C8C582C8CAC583CADFE9DEE780BE03
:010E79000078
:10051D00C2D530F707B2D563F0FF05F030E70CB266
:10052D00D5F4048463F0FF05F080018430D502F426
:02053D00042296
:10053F00BB010689828A83E0225002E722BBFE02BA
:09054F00E32289828A83E49322ED
:10055800BB010CE58229F582E5833AF583E0225058
:1005680006E92582F8E622BBFE06E92582F8E222A2
:0D057800E58229F582E5833AF583E49322BC
:10058500BC000BBE0029EF8DF084FFADF022E4CC5A
:10059500F875F008EF2FFFEE33FEEC33FCEE9DEC23
:1005A500984005FCEE9DFE0FD5F0E9E4CEFD22ED69
:1005B500F8F5F0EE8420D21CFEADF075F008EF2FB3
:1005C500FFED33FD4007985006D5F0F222C398FDA4
:0505D5000FD5F0EA2241
:1005DA00BB010A89828A83E0F5F0A3E022500687EC
:1005EA00F009E71922BBFE07E3F5F009E3192289AE
:0B05FA00828A83E493F5F074019322E1
:10060500BB0110E58229F582E5833AF583E0F5F033
:10061500A3E0225009E92582F886F008E622BBFE10
:100625000AE92582F8E2F5F008E222E5832AF58356
:08063500E993F5F0A3E993221B
:10063D00BB010A89828A83F0E5F0A3F0225006F708
:0F064D0009A7F01922BBFE06F3E5F009F3192205
:10002600E508243AF8E20508227837300702783ADC
:10003600E475F00112066E02053F2000EB7F2ED21A
:10004600008018EF540F2490D43440D4FF30040BB2
:10005600EF24BFB41A0050032461FFE509600215BE
:1000660009050CE50C7002050B30070D7837E475B1
:10007600F00112066EEF02065C02121F7403D2072D
:100086008003E4C207F508783712067EE4F509F521
:100096000BF50CE50960077F2012006180F5750AF3
:1000A600FFC201C200C202C203C205C206C20812D2
:1000B600002FFF700D3007057F00120072AF0CAEE7
:1000C6000B22B4255FC2D5C20412002FFF24D0B480
:1000D6000A00501A75F00A780930D50508B6FF01EE
:1000E60006C6A426F620D5047002D20380D924CFF2
:1000F600B41A00EF5004C2E5D204020271D20180A4
:10010600C6D20080C0D20280BCD2D580BAD20580C9
:10011600B47F201200612002077401B5090040F186
:10012600120026FF120061020099D208D2068095BD
:10013600120026FB120026FA120026F94A4B700618
:1001460079427A037BFF20022EE509602A7E008E23
:100156008275830012055860060EEE650A70F0C2BD
:10016600D5EBC0E0EAC0E0E9C0E0EE1202B8D0E0AC
:10017600F9D0E0FAD0E0FB12053FFF60AAEBC0E041
:10018600EAC0E0E9C0E0120061D0E02401F9D0E065
:100196003400FAD0E0FBE50A0460DCD50AD9808792
:1001A6007BFF7A0279B4D202809C791080027908AA
:1001B600C206C2088008D2D5790A8004790AC2D557
:1001C600E50A047002F50AE4FAFDFEFF120026FCB9
:1001D6007B08200113120026FD7B1030000A120056
:1001E60026FE120026FF7B20EC3382D592D55013D3
:1001F600C3E43000069FFFE49EFEE42001039DFD5C
:10020600E49CFCE4CBF8C201EC700CCFCECDCCE87C
:1002160024F8F870F38017C3EF33FFEE33FEED33A7
:10022600FDEC33FCEB33FB994002FB0FD8E9EB30D6
:100236000105F8D0E0C448B201C0E00AEC4D4E4FCB
:1002460078207B0070C2EAB50A0040BCC0E012020A
:10025600BAD0F0D0E0200104C4C0E0C4B201C0F0BE
:1002660012004AD0F0D5F0EB02009912068701364B
:100276005301B05801074C01034201B44F01BC447D
:1002860001BC49011C4301C25501A64601A6450110
:01029600A6C1
:1002970047036250010B2D010F2E01322B0113234F
:1002A700013020034B2A00CB480000012A3F3F3F83
:1002B70000790AA2D5200314300509B910020404F5
:1002C700B9080104A2D52006025001042002689251
:1002D70002B509005034C0E07F203003197F30A2F7
:1002E7000272067205500F120311C202C206C2053E
:1002F700C2087F30800F300503E9C0E0120061308B
:100307000503D0E0F9D0E0B509CC3005177F30B947
:10031700100C1200617F583004077F788003B908FA
:10032700031200613002057F2D0200617F20200843
:10033700F87F2B2006F322920280CF286E756C6C13
:100347002900D2011200263001F8C201780930D500
:100357000108F60200CB2D5043495812002624030A
:10036700B405004001E490035D93120052743A1201
:0A0377000052D2037509040201B020
:10065C00BB010689828A83F0225002F722BBFE017D
:02066C00F32277
:10066E00FAE2FB0808E2F925F0F218E2CA3AF222A1
:09067E00EBF208EAF208E9F222AD
:10068700D083D082F8E4937012740193700DA3A302
:1006970093F8740193F5828883E473740293686016
:0606A700EFA3A3A380DF16
:00000001FF
